{
  "contractName": "SeaFoodContract",
  "abi": [
    {
      "constant": true,
      "inputs": [
        {
          "name": "",
          "type": "uint256"
        }
      ],
      "name": "owners",
      "outputs": [
        {
          "name": "",
          "type": "string"
        }
      ],
      "payable": false,
      "stateMutability": "view",
      "type": "function"
    },
    {
      "constant": true,
      "inputs": [
        {
          "name": "",
          "type": "address"
        }
      ],
      "name": "balances",
      "outputs": [
        {
          "name": "",
          "type": "uint256"
        }
      ],
      "payable": false,
      "stateMutability": "view",
      "type": "function"
    },
    {
      "constant": true,
      "inputs": [],
      "name": "tokenPrice",
      "outputs": [
        {
          "name": "",
          "type": "uint256"
        }
      ],
      "payable": false,
      "stateMutability": "view",
      "type": "function"
    },
    {
      "constant": true,
      "inputs": [],
      "name": "owner",
      "outputs": [
        {
          "name": "",
          "type": "address"
        }
      ],
      "payable": false,
      "stateMutability": "view",
      "type": "function"
    },
    {
      "constant": true,
      "inputs": [
        {
          "name": "",
          "type": "uint256"
        }
      ],
      "name": "item_names",
      "outputs": [
        {
          "name": "",
          "type": "string"
        }
      ],
      "payable": false,
      "stateMutability": "view",
      "type": "function"
    },
    {
      "inputs": [],
      "payable": false,
      "stateMutability": "nonpayable",
      "type": "constructor"
    },
    {
      "anonymous": false,
      "inputs": [
        {
          "indexed": false,
          "name": "from",
          "type": "address"
        },
        {
          "indexed": false,
          "name": "to",
          "type": "address"
        },
        {
          "indexed": false,
          "name": "name",
          "type": "string"
        },
        {
          "indexed": false,
          "name": "amount",
          "type": "uint256"
        },
        {
          "indexed": false,
          "name": "oldOwner",
          "type": "string"
        },
        {
          "indexed": false,
          "name": "newOwner",
          "type": "string"
        }
      ],
      "name": "Transaction",
      "type": "event"
    },
    {
      "constant": true,
      "inputs": [
        {
          "name": "_address",
          "type": "address"
        }
      ],
      "name": "getUser",
      "outputs": [
        {
          "name": "",
          "type": "string"
        },
        {
          "name": "",
          "type": "string"
        },
        {
          "name": "",
          "type": "address"
        }
      ],
      "payable": false,
      "stateMutability": "view",
      "type": "function"
    },
    {
      "constant": true,
      "inputs": [
        {
          "name": "_name",
          "type": "string"
        }
      ],
      "name": "getEntity",
      "outputs": [
        {
          "name": "",
          "type": "string"
        },
        {
          "name": "",
          "type": "uint256"
        },
        {
          "name": "",
          "type": "string"
        },
        {
          "name": "",
          "type": "address"
        }
      ],
      "payable": false,
      "stateMutability": "view",
      "type": "function"
    },
    {
      "constant": false,
      "inputs": [],
      "name": "addEntities",
      "outputs": [],
      "payable": false,
      "stateMutability": "nonpayable",
      "type": "function"
    },
    {
      "constant": true,
      "inputs": [
        {
          "name": "_name",
          "type": "string"
        }
      ],
      "name": "getItemsValue",
      "outputs": [
        {
          "name": "",
          "type": "uint256"
        }
      ],
      "payable": false,
      "stateMutability": "view",
      "type": "function"
    },
    {
      "constant": true,
      "inputs": [
        {
          "name": "_name",
          "type": "string"
        }
      ],
      "name": "getOwnerAddress",
      "outputs": [
        {
          "name": "",
          "type": "address"
        }
      ],
      "payable": false,
      "stateMutability": "view",
      "type": "function"
    },
    {
      "constant": false,
      "inputs": [
        {
          "name": "_address",
          "type": "address"
        },
        {
          "name": "name",
          "type": "string"
        }
      ],
      "name": "addAsFisherMan",
      "outputs": [],
      "payable": false,
      "stateMutability": "nonpayable",
      "type": "function"
    },
    {
      "constant": false,
      "inputs": [
        {
          "name": "_address",
          "type": "address"
        },
        {
          "name": "name",
          "type": "string"
        }
      ],
      "name": "addAsBuyer",
      "outputs": [],
      "payable": false,
      "stateMutability": "nonpayable",
      "type": "function"
    },
    {
      "constant": false,
      "inputs": [
        {
          "name": "_address",
          "type": "address"
        },
        {
          "name": "name",
          "type": "string"
        }
      ],
      "name": "addAsRestaurantOwner",
      "outputs": [],
      "payable": false,
      "stateMutability": "nonpayable",
      "type": "function"
    },
    {
      "constant": false,
      "inputs": [
        {
          "name": "sender",
          "type": "address"
        },
        {
          "name": "receiver",
          "type": "address"
        },
        {
          "name": "_name",
          "type": "string"
        },
        {
          "name": "newOwner",
          "type": "string"
        },
        {
          "name": "oldOwner",
          "type": "string"
        }
      ],
      "name": "buyEntity",
      "outputs": [
        {
          "name": "",
          "type": "bool"
        }
      ],
      "payable": false,
      "stateMutability": "nonpayable",
      "type": "function"
    }
  ],
  "bytecode": "0x606060405234156200001057600080fd5b60008054600160a060020a03191633600160a060020a0316179055600a6008556080604051908101604052806040805190810160405280600581526020017f41646d696e00000000000000000000000000000000000000000000000000000081525081526020016040805190810160405280600981526020017f4669736865726d616e000000000000000000000000000000000000000000000081525081526020016040805190810160405280600581526020017f4275796572000000000000000000000000000000000000000000000000000000815250815260200160408051908101604052600d81527f52657374617572616e7465757200000000000000000000000000000000000000602082015290526200013390600690600462000df5565b506060604051908101604052806040805190810160405280600b81526020017f436f6d6d6f6e206361727000000000000000000000000000000000000000000081525081526020016040805190810160405280600981526020017f476f6c6420466973680000000000000000000000000000000000000000000000815250815260200160408051908101604052600581527f4f7363617200000000000000000000000000000000000000000000000000000060208201529052620001fc90600790600362000e58565b50600160a060020a0333811660009081526002602052604081208190558054600680549190931692600592909181106200023257fe5b906000526020600020900160405180828054600181600116156101000203166002900480156200029c5780601f10620002795761010080835404028352918201916200029c565b820191906000526020600020905b81548152906001019060200180831162000287575b505092835250506020016040519081900390208054600160a060020a031916600160a060020a039290921691909117905560606040519081016040528060066000815481101515620002ea57fe5b90600052602060002090018054600181600116156101000203166002900480601f0160208091040260200160405190810160405280929190818152602001828054600181600116156101000203166002900480156200038d5780601f1062000361576101008083540402835291602001916200038d565b820191906000526020600020905b8154815290600101906020018083116200036f57829003601f168201915b50505050508152602001604080519081016040908152600582527f41646d696e00000000000000000000000000000000000000000000000000000060208084019190915291835260008054600160a060020a0390811694840194909452339093168352600390915290208151819080516200040d92916020019062000ea9565b506020820151816001019080516200042a92916020019062000ea9565b5060408201516002919091018054600160a060020a031916600160a060020a03909216919091179055506200046c64010000000062000472810262000a5e1704565b62000fbd565b608060405190810160405280600760008154811015156200048f57fe5b90600052602060002090018054600181600116156101000203166002900480601f016020809104026020016040519081016040528092919081815260200182805460018160011615610100020316600290048015620005325780601f10620005065761010080835404028352916020019162000532565b820191906000526020600020905b8154815290600101906020018083116200051457829003601f168201915b5050505050815260200160058152602001600660008154811015156200055457fe5b90600052602060002090018054600181600116156101000203166002900480601f016020809104026020016040519081016040528092919081815260200182805460018160011615610100020316600290048015620005f75780601f10620005cb57610100808354040283529160200191620005f7565b820191906000526020600020905b815481529060010190602001808311620005d957829003601f168201915b505050918352505060008054600160a060020a0316602090920191909152600780546001929081106200062657fe5b90600052602060002090016040518082805460018160011615610100020316600290048015620006905780601f106200066d57610100808354040283529182019162000690565b820191906000526020600020905b8154815290600101906020018083116200067b575b50509283525050602001604051908190039020815181908051620006b992916020019062000ea9565b5060208201518160010155604082015181600201908051620006e092916020019062000ea9565b5060608201516003919091018054600160a060020a031916600160a060020a0390921691909117905550608060405190810160405280600760018154811015156200072757fe5b90600052602060002090018054600181600116156101000203166002900480601f016020809104026020016040519081016040528092919081815260200182805460018160011615610100020316600290048015620007ca5780601f106200079e57610100808354040283529160200191620007ca565b820191906000526020600020905b815481529060010190602001808311620007ac57829003601f168201915b50505050508152602001600a815260200160066000815481101515620007ec57fe5b90600052602060002090018054600181600116156101000203166002900480601f0160208091040260200160405190810160405280929190818152602001828054600181600116156101000203166002900480156200088f5780601f1062000863576101008083540402835291602001916200088f565b820191906000526020600020905b8154815290600101906020018083116200087157829003601f168201915b5050509183525050600054600160a060020a0316602090910152600780546001919082908110620008bc57fe5b90600052602060002090016040518082805460018160011615610100020316600290048015620009265780601f106200090357610100808354040283529182019162000926565b820191906000526020600020905b81548152906001019060200180831162000911575b505092835250506020016040519081900390208151819080516200094f92916020019062000ea9565b50602082015181600101556040820151816002019080516200097692916020019062000ea9565b5060608201516003919091018054600160a060020a031916600160a060020a039092169190911790555060806040519081016040528060076002815481101515620009bd57fe5b90600052602060002090018054600181600116156101000203166002900480601f01602080910402602001604051908101604052809291908181526020018280546001816001161561010002031660029004801562000a605780601f1062000a345761010080835404028352916020019162000a60565b820191906000526020600020905b81548152906001019060200180831162000a4257829003601f168201915b50505050508152602001600f81526020016006600081548110151562000a8257fe5b90600052602060002090018054600181600116156101000203166002900480601f01602080910402602001604051908101604052809291908181526020018280546001816001161561010002031660029004801562000b255780601f1062000af95761010080835404028352916020019162000b25565b820191906000526020600020905b81548152906001019060200180831162000b0757829003601f168201915b5050509183525050600054600160a060020a03166020909101526007805460019190600290811062000b5357fe5b9060005260206000209001604051808280546001816001161561010002031660029004801562000bbd5780601f1062000b9a57610100808354040283529182019162000bbd565b820191906000526020600020905b81548152906001019060200180831162000ba8575b5050928352505060200160405190819003902081518190805162000be692916020019062000ea9565b506020820151816001015560408201518160020190805162000c0d92916020019062000ea9565b5060608201516003919091018054600160a060020a031916600160a060020a039092169190911790555060078054600591600491600090811062000c4d57fe5b9060005260206000209001604051808280546001816001161561010002031660029004801562000cb75780601f1062000c9457610100808354040283529182019162000cb7565b820191906000526020600020905b81548152906001019060200180831162000ca2575b505092835250506020016040519081900390205560078054600a91600491600190811062000ce157fe5b9060005260206000209001604051808280546001816001161561010002031660029004801562000d4b5780601f1062000d2857610100808354040283529182019162000d4b565b820191906000526020600020905b81548152906001019060200180831162000d36575b505092835250506020016040519081900390205560078054600f91600491600290811062000d7557fe5b9060005260206000209001604051808280546001816001161561010002031660029004801562000ddf5780601f1062000dbc57610100808354040283529182019162000ddf565b820191906000526020600020905b81548152906001019060200180831162000dca575b5050928352505060200160405190819003902055565b82805482825590600052602060002090810192821562000e46579160200282015b8281111562000e465782518290805162000e3592916020019062000ea9565b509160200191906001019062000e16565b5062000e5492915062000f2a565b5090565b82805482825590600052602060002090810192821562000e46579160200282015b8281111562000e465782518290805162000e9892916020019062000ea9565b509160200191906001019062000e79565b828054600181600116156101000203166002900490600052602060002090601f016020900481019282601f1062000eec57805160ff191683800117855562000f1c565b8280016001018555821562000f1c579182015b8281111562000f1c57825182559160200191906001019062000eff565b5062000e5492915062000f55565b62000f5291905b8082111562000e5457600062000f48828262000f72565b5060010162000f31565b90565b62000f5291905b8082111562000e54576000815560010162000f5c565b50805460018160011615610100020316600290046000825580601f1062000f9a575062000fba565b601f01602090049060005260206000209081019062000fba919062000f55565b50565b6120d38062000fcd6000396000f3006060604052600436106100cf5763ffffffff7c0100000000000000000000000000000000000000000000000000000000600035041663025e7c2781146100d4578063070c412b146101615780631d170e7c146102ab57806324217bf81461031857806327e235e31461032d57806342b2daef1461035e5780636da2835b146103af5780636f77926b1461040e5780637ff9b5961461051e5780638da5cb5b1461053157806394ec526914610544578063b766ef67146105a3578063cac545bc14610602578063d3c23c7a14610703575b600080fd5b34156100df57600080fd5b6100ea600435610719565b60405160208082528190810183818151815260200191508051906020019080838360005b8381101561012657808201518382015260200161010e565b50505050905090810190601f1680156101535780820380516001836020036101000a031916815260200191505b509250505060405180910390f35b341561016c57600080fd5b6101b260046024813581810190830135806020601f820181900481020160405190810160405281815292919060208401838380828437509496506107d495505050505050565b60405160208101849052600160a060020a0382166060820152608080825281906040820190820187818151815260200191508051906020019080838360005b838110156102095780820151838201526020016101f1565b50505050905090810190601f1680156102365780820380516001836020036101000a031916815260200191505b50838103825285818151815260200191508051906020019080838360005b8381101561026c578082015183820152602001610254565b50505050905090810190601f1680156102995780820380516001836020036101000a031916815260200191505b50965050505050505060405180910390f35b34156102b657600080fd5b6102fc60046024813581810190830135806020601f820181900481020160405190810160405281815292919060208401838380828437509496506109e695505050505050565b604051600160a060020a03909116815260200160405180910390f35b341561032357600080fd5b61032b610a5e565b005b341561033857600080fd5b61034c600160a060020a0360043516611399565b60405190815260200160405180910390f35b341561036957600080fd5b61034c60046024813581810190830135806020601f820181900481020160405190810160405281815292919060208401838380828437509496506113ab95505050505050565b34156103ba57600080fd5b61032b60048035600160a060020a03169060446024803590810190830135806020601f8201819004810201604051908101604052818152929190602084018383808284375094965061141a95505050505050565b341561041957600080fd5b61042d600160a060020a036004351661161a565b604051600160a060020a0382166040820152606080825281906020820190820186818151815260200191508051906020019080838360005b8381101561047d578082015183820152602001610465565b50505050905090810190601f1680156104aa5780820380516001836020036101000a031916815260200191505b50838103825285818151815260200191508051906020019080838360005b838110156104e05780820151838201526020016104c8565b50505050905090810190601f16801561050d5780820380516001836020036101000a031916815260200191505b509550505050505060405180910390f35b341561052957600080fd5b61034c6117c8565b341561053c57600080fd5b6102fc6117ce565b341561054f57600080fd5b61032b60048035600160a060020a03169060446024803590810190830135806020601f820181900481020160405190810160405281815292919060208401838380828437509496506117dd95505050505050565b34156105ae57600080fd5b61032b60048035600160a060020a03169060446024803590810190830135806020601f8201819004810201604051908101604052818152929190602084018383808284375094965061193295505050505050565b341561060d57600080fd5b6106ef600160a060020a036004803582169160248035909116919060649060443590810190830135806020601f8201819004810201604051908101604052818152929190602084018383808284378201915050505050509190803590602001908201803590602001908080601f01602080910402602001604051908101604052818152929190602084018383808284378201915050505050509190803590602001908201803590602001908080601f016020809104026020016040519081016040528181529291906020840183838082843750949650611a8795505050505050565b604051901515815260200160405180910390f35b341561070e57600080fd5b6100ea600435611f96565b600680548290811061072757fe5b90600052602060002090016000915090508054600181600116156101000203166002900480601f0160208091040260200160405190810160405280929190818152602001828054600181600116156101000203166002900480156107cc5780601f106107a1576101008083540402835291602001916107cc565b820191906000526020600020905b8154815290600101906020018083116107af57829003601f168201915b505050505081565b6107dc611fa4565b60006107e6611fa4565b60006107f0611fb6565b6001866040518082805190602001908083835b602083106108225780518252601f199092019160209182019101610803565b6001836020036101000a038019825116818451168082178552505050505050905001915050908152602001604051809103902060806040519081016040529081600082018054600181600116156101000203166002900480601f0160208091040260200160405190810160405280929190818152602001828054600181600116156101000203166002900480156108fa5780601f106108cf576101008083540402835291602001916108fa565b820191906000526020600020905b8154815290600101906020018083116108dd57829003601f168201915b5050505050815260200160018201548152602001600282018054600181600116156101000203166002900480601f0160208091040260200160405190810160405280929190818152602001828054600181600116156101000203166002900480156109a65780601f1061097b576101008083540402835291602001916109a6565b820191906000526020600020905b81548152906001019060200180831161098957829003601f168201915b505050918352505060039190910154600160a060020a03166020918201529091508690820151826040015183606001519299919850965090945092505050565b60006005826040518082805190602001908083835b60208310610a1a5780518252601f1990920191602091820191016109fb565b6001836020036101000a03801982511681845116808217855250505050505090500191505090815260200160405190819003902054600160a060020a031692915050565b60806040519081016040528060076000815481101515610a7a57fe5b90600052602060002090018054600181600116156101000203166002900480601f016020809104026020016040519081016040528092919081815260200182805460018160011615610100020316600290048015610b195780601f10610aee57610100808354040283529160200191610b19565b820191906000526020600020905b815481529060010190602001808311610afc57829003601f168201915b505050505081526020016005815260200160066000815481101515610b3a57fe5b90600052602060002090018054600181600116156101000203166002900480601f016020809104026020016040519081016040528092919081815260200182805460018160011615610100020316600290048015610bd95780601f10610bae57610100808354040283529160200191610bd9565b820191906000526020600020905b815481529060010190602001808311610bbc57829003601f168201915b505050918352505060008054600160a060020a031660209092019190915260078054600192908110610c0757fe5b90600052602060002090016040518082805460018160011615610100020316600290048015610c6d5780601f10610c4b576101008083540402835291820191610c6d565b820191906000526020600020905b815481529060010190602001808311610c59575b50509283525050602001604051908190039020815181908051610c94929160200190611feb565b5060208201518160010155604082015181600201908051610cb9929160200190611feb565b5060608201516003919091018054600160a060020a031916600160a060020a039092169190911790555060806040519081016040528060076001815481101515610cff57fe5b90600052602060002090018054600181600116156101000203166002900480601f016020809104026020016040519081016040528092919081815260200182805460018160011615610100020316600290048015610d9e5780601f10610d7357610100808354040283529160200191610d9e565b820191906000526020600020905b815481529060010190602001808311610d8157829003601f168201915b50505050508152602001600a815260200160066000815481101515610dbf57fe5b90600052602060002090018054600181600116156101000203166002900480601f016020809104026020016040519081016040528092919081815260200182805460018160011615610100020316600290048015610e5e5780601f10610e3357610100808354040283529160200191610e5e565b820191906000526020600020905b815481529060010190602001808311610e4157829003601f168201915b5050509183525050600054600160a060020a0316602090910152600780546001919082908110610e8a57fe5b90600052602060002090016040518082805460018160011615610100020316600290048015610ef05780601f10610ece576101008083540402835291820191610ef0565b820191906000526020600020905b815481529060010190602001808311610edc575b50509283525050602001604051908190039020815181908051610f17929160200190611feb565b5060208201518160010155604082015181600201908051610f3c929160200190611feb565b5060608201516003919091018054600160a060020a031916600160a060020a039092169190911790555060806040519081016040528060076002815481101515610f8257fe5b90600052602060002090018054600181600116156101000203166002900480601f0160208091040260200160405190810160405280929190818152602001828054600181600116156101000203166002900480156110215780601f10610ff657610100808354040283529160200191611021565b820191906000526020600020905b81548152906001019060200180831161100457829003601f168201915b50505050508152602001600f81526020016006600081548110151561104257fe5b90600052602060002090018054600181600116156101000203166002900480601f0160208091040260200160405190810160405280929190818152602001828054600181600116156101000203166002900480156110e15780601f106110b6576101008083540402835291602001916110e1565b820191906000526020600020905b8154815290600101906020018083116110c457829003601f168201915b5050509183525050600054600160a060020a03166020909101526007805460019190600290811061110e57fe5b906000526020600020900160405180828054600181600116156101000203166002900480156111745780601f10611152576101008083540402835291820191611174565b820191906000526020600020905b815481529060010190602001808311611160575b5050928352505060200160405190819003902081518190805161119b929160200190611feb565b50602082015181600101556040820151816002019080516111c0929160200190611feb565b5060608201516003919091018054600160a060020a031916600160a060020a03909216919091179055506007805460059160049160009081106111ff57fe5b906000526020600020900160405180828054600181600116156101000203166002900480156112655780601f10611243576101008083540402835291820191611265565b820191906000526020600020905b815481529060010190602001808311611251575b505092835250506020016040519081900390205560078054600a91600491600190811061128e57fe5b906000526020600020900160405180828054600181600116156101000203166002900480156112f45780601f106112d25761010080835404028352918201916112f4565b820191906000526020600020905b8154815290600101906020018083116112e0575b505092835250506020016040519081900390205560078054600f91600491600290811061131d57fe5b906000526020600020900160405180828054600181600116156101000203166002900480156113835780601f10611361576101008083540402835291820191611383565b820191906000526020600020905b81548152906001019060200180831161136f575b5050928352505060200160405190819003902055565b60026020526000908152604090205481565b60006004826040518082805190602001908083835b602083106113df5780518252601f1990920191602091820191016113c0565b6001836020036101000a0380198251168184511680821785525050505050509050019150509081526020016040518091039020549050919050565b6060604051908101604052806006600281548110151561143657fe5b90600052602060002090018054600181600116156101000203166002900480601f0160208091040260200160405190810160405280929190818152602001828054600181600116156101000203166002900480156114d55780601f106114aa576101008083540402835291602001916114d5565b820191906000526020600020905b8154815290600101906020018083116114b857829003601f168201915b50505091835250506020808201849052600160a060020a03851660409283018190526000908152600390915220815181908051611516929160200190611feb565b50602082015181600101908051611531929160200190611feb565b50604082015160029182018054600160a060020a031916600160a060020a03929092169190911790556006805485935060059290811061156d57fe5b906000526020600020900160405180828054600181600116156101000203166002900480156115d35780601f106115b15761010080835404028352918201916115d3565b820191906000526020600020905b8154815290600101906020018083116115bf575b505092835250506020016040519081900390208054600160a060020a031916600160a060020a039283161790559190911660009081526002602052604090206103e8905550565b611622611fa4565b61162a611fa4565b6000611634612069565b600160a060020a0385166000908152600360205260409081902090606090519081016040529081600082018054600181600116156101000203166002900480601f0160208091040260200160405190810160405280929190818152602001828054600181600116156101000203166002900480156116f35780601f106116c8576101008083540402835291602001916116f3565b820191906000526020600020905b8154815290600101906020018083116116d657829003601f168201915b50505050508152602001600182018054600181600116156101000203166002900480601f0160208091040260200160405190810160405280929190818152602001828054600181600116156101000203166002900480156117955780601f1061176a57610100808354040283529160200191611795565b820191906000526020600020905b81548152906001019060200180831161177857829003601f168201915b505050918352505060029190910154600160a060020a031660209091015290508051816020015190969095945092505050565b60085481565b600054600160a060020a031681565b606060405190810160405280600660038154811015156117f957fe5b90600052602060002090018054600181600116156101000203166002900480601f0160208091040260200160405190810160405280929190818152602001828054600181600116156101000203166002900480156118985780601f1061186d57610100808354040283529160200191611898565b820191906000526020600020905b81548152906001019060200180831161187b57829003601f168201915b50505091835250506020808201849052600160a060020a038516604092830181905260009081526003909152208151819080516118d9929160200190611feb565b506020820151816001019080516118f4929160200190611feb565b5060408201516002919091018054600160a060020a031916600160a060020a0390921691909117905550600680548391600591600390811061156d57fe5b6060604051908101604052806006600181548110151561194e57fe5b90600052602060002090018054600181600116156101000203166002900480601f0160208091040260200160405190810160405280929190818152602001828054600181600116156101000203166002900480156119ed5780601f106119c2576101008083540402835291602001916119ed565b820191906000526020600020905b8154815290600101906020018083116119d057829003601f168201915b50505091835250506020808201849052600160a060020a03851660409283018190526000908152600390915220815181908051611a2e929160200190611feb565b50602082015181600101908051611a49929160200190611feb565b5060408201516002919091018054600160a060020a031916600160a060020a0390921691909117905550600680548391600591600190811061156d57fe5b6000806000611a94611fb6565b611a9d876113ab565b600854600160a060020a038a166000908152600260205260409020549194508402925082901015611ad15760009350611f8a565b6001876040518082805190602001908083835b60208310611b035780518252601f199092019160209182019101611ae4565b6001836020036101000a038019825116818451168082178552505050505050905001915050908152602001604051809103902060806040519081016040529081600082018054600181600116156101000203166002900480601f016020809104026020016040519081016040528092919081815260200182805460018160011615610100020316600290048015611bdb5780601f10611bb057610100808354040283529160200191611bdb565b820191906000526020600020905b815481529060010190602001808311611bbe57829003601f168201915b5050505050815260200160018201548152602001600282018054600181600116156101000203166002900480601f016020809104026020016040519081016040528092919081815260200182805460018160011615610100020316600290048015611c875780601f10611c5c57610100808354040283529160200191611c87565b820191906000526020600020905b815481529060010190602001808311611c6a57829003601f168201915b505050918352505060039190910154600160a060020a0390811660209092019190915290915089166060820151600160a060020a031614611ccb5760009350611f8a565b600160a060020a03808a16600090815260026020526040808220805486019055918a168152819020805484900390557fa024dc4ddaa6657090ba0804c3afaa906f1952503770133088a0a527d34d0d0d908a908a908a9087908a908c9051600160a060020a038088168252861660208201526060810184905260c06040820181815290608083019060a0840190840188818151815260200191508051906020019080838360005b83811015611d8a578082015183820152602001611d72565b50505050905090810190601f168015611db75780820380516001836020036101000a031916815260200191505b50848103835286818151815260200191508051906020019080838360005b83811015611ded578082015183820152602001611dd5565b50505050905090810190601f168015611e1a5780820380516001836020036101000a031916815260200191505b50848103825285818151815260200191508051906020019080838360005b83811015611e50578082015183820152602001611e38565b50505050905090810190601f168015611e7d5780820380516001836020036101000a031916815260200191505b50995050505050505050505060405180910390a160806040519081016040528088815260200184815260200187815260200189600160a060020a03168152506001886040518082805190602001908083835b60208310611eee5780518252601f199092019160209182019101611ecf565b6001836020036101000a038019825116818451168082178552505050505050905001915050908152602001604051908190039020815181908051611f36929160200190611feb565b5060208201518160010155604082015181600201908051611f5b929160200190611feb565b5060608201516003919091018054600160a060020a031916600160a060020a0390921691909117905550600193505b50505095945050505050565b600780548290811061072757fe5b60206040519081016040526000815290565b608060405190810160405280611fca611fa4565b815260200160008152602001611fde611fa4565b8152600060209091015290565b828054600181600116156101000203166002900490600052602060002090601f016020900481019282601f1061202c57805160ff1916838001178555612059565b82800160010185558215612059579182015b8281111561205957825182559160200191906001019061203e565b5061206592915061208a565b5090565b60606040519081016040528061207d611fa4565b8152602001611fde611fa4565b6120a491905b808211156120655760008155600101612090565b905600a165627a7a7230582077986e1892278b197189c057499df89f8376e59540bd741f6976589626925ef50029",
  "source": "pragma solidity ^0.4.18;\n// We have to specify what version of compiler this code will compile with\n\ncontract SeaFoodContract {\n  \n  struct Entity {\n    string name;\n    uint value;\n    string owner;\n    address _address;\n  }\n\n  struct User {\n    string owner;\n    string name;\n    address account;\n  }\n\n  address public owner;\n  mapping (string => Entity)  entities;\n  mapping (address => uint) public  balances;\n  mapping (address => User)   users;\n  mapping (string => uint)  items_value;\n  mapping (string => address)  owner_address;\n  string[] public owners;\n  string[] public item_names;\n  uint public tokenPrice;\n\n  event Transaction(address from, address to, string name , uint amount ,string oldOwner,string newOwner);\n\n  /* This is the constructor which will be called once when you\n  deploy the contract to the blockchain. When we deploy the contract,\n  */\n  function SeaFoodContract() public {\n    owner = msg.sender;\n    tokenPrice = 10;\n    owners = [\"Admin\",\"Fisherman\",\"Buyer\",\"Restauranteur\"];\n    item_names = [\"Common carp\",\"Gold Fish\",\"Oscar\"];\n    balances[msg.sender] = 0;\n    //for now admin is the creator\n    owner_address[owners[0]] = owner;\n    users[msg.sender] = User(owners[0],\"Admin\",owner);\n    addEntities();\n  }\n\n  function getUser(address _address)  view public returns (string,string,address) {\n    User memory _user = users[_address];\n        return (_user.owner,_user.name,_address);\n  }\n\n  function getEntity(string _name)  view public returns (string,uint,string,address) {\n    Entity memory _entity = entities[_name];\n    return (_name,_entity.value,_entity.owner,_entity._address);\n  }\n\n  function addEntities()  public {\n    entities[item_names[0]] = Entity(item_names[0],5,owners[0],owner);\n    entities[item_names[1]] = Entity(item_names[1],10,owners[0],owner);\n    entities[item_names[2]] = Entity(item_names[2],15,owners[0],owner);\n    items_value[item_names[0]] = 5;\n    items_value[item_names[1]] = 10;\n    items_value[item_names[2]] = 15;\n  }\n\n  function getItemsValue(string _name) constant public returns (uint) {\n     return items_value[_name];\n  }\n\n  function getOwnerAddress(string _name) constant public returns (address) {\n     return owner_address[_name];\n  }\n\n \n  function addAsFisherMan(address _address,string name) public {\n    users[_address] = User(owners[1],name,_address);\n    owner_address[owners[1]] = _address;\n    balances[_address] = 1000;\n  }\n\n  function addAsBuyer(address _address,string name) public {\n    users[_address] = User(owners[2],name,_address);\n    owner_address[owners[2]] = _address;\n    balances[_address] = 1000;\n  }\n\n  function addAsRestaurantOwner(address _address,string name) public {\n    users[_address] = User(owners[3],name,_address);\n    owner_address[owners[3]] = _address;\n    balances[_address] = 1000;\n  }\n\n  function buyEntity(address sender,address receiver,string _name,string newOwner,string oldOwner) public returns (bool) {\n\n        uint value = getItemsValue(_name);\n        uint tokensToBuy = value * tokenPrice;\n        if ( balances[receiver] < tokensToBuy ) {\n          return false;\n        }\n        Entity memory _entity = entities[_name];\n        if ( _entity._address != sender ) {\n          return false;\n        }\n        balances[sender] += tokensToBuy;\n        balances[receiver] -= tokensToBuy;\n\n      Transaction (sender, receiver,_name, value,oldOwner,newOwner);\n       entities[_name] = Entity(_name,value,newOwner,receiver);\n       return true;\n  }\n\n}\n",
  "sourcePath": "/home/synerzip/Desktop/seafood_new/contracts/SeaFoodContract.sol",
  "compiler": {
    "name": "solc",
    "version": "0.4.19+commit.c4cbbb05.Emscripten.clang"
  },
  "schemaVersion": "1.0.1",
  "updatedAt": "2018-03-12T07:02:43.775Z"
}